{
  "_format": "hh-sol-artifact-1",
  "contractName": "Payment",
  "sourceName": "contracts/Payment.sol",
  "abi": [
    {
      "inputs": [],
      "stateMutability": "nonpayable",
      "type": "constructor"
    },
    {
      "anonymous": false,
      "inputs": [
        {
          "indexed": true,
          "internalType": "uint256",
          "name": "hospitalId",
          "type": "uint256"
        },
        {
          "indexed": true,
          "internalType": "address",
          "name": "hospital",
          "type": "address"
        }
      ],
      "name": "HospitalRegistered",
      "type": "event"
    },
    {
      "anonymous": false,
      "inputs": [
        {
          "indexed": true,
          "internalType": "uint256",
          "name": "hospitalId",
          "type": "uint256"
        },
        {
          "indexed": true,
          "internalType": "address",
          "name": "oldAddress",
          "type": "address"
        },
        {
          "indexed": true,
          "internalType": "address",
          "name": "newAddress",
          "type": "address"
        }
      ],
      "name": "HospitalUpdated",
      "type": "event"
    },
    {
      "anonymous": false,
      "inputs": [
        {
          "indexed": true,
          "internalType": "address",
          "name": "from",
          "type": "address"
        },
        {
          "indexed": true,
          "internalType": "address",
          "name": "to",
          "type": "address"
        },
        {
          "indexed": false,
          "internalType": "uint256",
          "name": "amount",
          "type": "uint256"
        },
        {
          "indexed": false,
          "internalType": "uint256",
          "name": "timestamp",
          "type": "uint256"
        },
        {
          "indexed": false,
          "internalType": "uint256",
          "name": "claimId",
          "type": "uint256"
        }
      ],
      "name": "InsuranceTransfer",
      "type": "event"
    },
    {
      "anonymous": false,
      "inputs": [
        {
          "indexed": true,
          "internalType": "address",
          "name": "from",
          "type": "address"
        },
        {
          "indexed": true,
          "internalType": "address",
          "name": "to",
          "type": "address"
        },
        {
          "indexed": false,
          "internalType": "uint256",
          "name": "amount",
          "type": "uint256"
        },
        {
          "indexed": false,
          "internalType": "uint256",
          "name": "timestamp",
          "type": "uint256"
        },
        {
          "indexed": false,
          "internalType": "uint256",
          "name": "claimId",
          "type": "uint256"
        }
      ],
      "name": "PatientTransfer",
      "type": "event"
    },
    {
      "inputs": [],
      "name": "admin",
      "outputs": [
        {
          "internalType": "address",
          "name": "",
          "type": "address"
        }
      ],
      "stateMutability": "view",
      "type": "function"
    },
    {
      "inputs": [
        {
          "internalType": "uint256",
          "name": "hospitalId",
          "type": "uint256"
        }
      ],
      "name": "getHospitalAddress",
      "outputs": [
        {
          "internalType": "address",
          "name": "",
          "type": "address"
        }
      ],
      "stateMutability": "view",
      "type": "function"
    },
    {
      "inputs": [
        {
          "internalType": "address",
          "name": "hospital",
          "type": "address"
        }
      ],
      "name": "getHospitalReceivedCount",
      "outputs": [
        {
          "internalType": "uint256",
          "name": "",
          "type": "uint256"
        }
      ],
      "stateMutability": "view",
      "type": "function"
    },
    {
      "inputs": [
        {
          "internalType": "address",
          "name": "hospital",
          "type": "address"
        }
      ],
      "name": "getHospitalReceivedHistory",
      "outputs": [
        {
          "components": [
            {
              "internalType": "address",
              "name": "from",
              "type": "address"
            },
            {
              "internalType": "address",
              "name": "to",
              "type": "address"
            },
            {
              "internalType": "uint256",
              "name": "amount",
              "type": "uint256"
            },
            {
              "internalType": "uint256",
              "name": "timestamp",
              "type": "uint256"
            },
            {
              "internalType": "string",
              "name": "transactionType",
              "type": "string"
            },
            {
              "internalType": "uint256",
              "name": "claimId",
              "type": "uint256"
            }
          ],
          "internalType": "struct Payment.Transaction[]",
          "name": "",
          "type": "tuple[]"
        }
      ],
      "stateMutability": "view",
      "type": "function"
    },
    {
      "inputs": [
        {
          "internalType": "address",
          "name": "insurance",
          "type": "address"
        }
      ],
      "name": "getInsurancePaymentTotal",
      "outputs": [
        {
          "internalType": "uint256",
          "name": "",
          "type": "uint256"
        }
      ],
      "stateMutability": "view",
      "type": "function"
    },
    {
      "inputs": [
        {
          "internalType": "address",
          "name": "insurance",
          "type": "address"
        }
      ],
      "name": "getInsuranceTransactionCount",
      "outputs": [
        {
          "internalType": "uint256",
          "name": "",
          "type": "uint256"
        }
      ],
      "stateMutability": "view",
      "type": "function"
    },
    {
      "inputs": [
        {
          "internalType": "address",
          "name": "insurance",
          "type": "address"
        }
      ],
      "name": "getInsuranceTransactionHistory",
      "outputs": [
        {
          "components": [
            {
              "internalType": "address",
              "name": "from",
              "type": "address"
            },
            {
              "internalType": "address",
              "name": "to",
              "type": "address"
            },
            {
              "internalType": "uint256",
              "name": "amount",
              "type": "uint256"
            },
            {
              "internalType": "uint256",
              "name": "timestamp",
              "type": "uint256"
            },
            {
              "internalType": "string",
              "name": "transactionType",
              "type": "string"
            },
            {
              "internalType": "uint256",
              "name": "claimId",
              "type": "uint256"
            }
          ],
          "internalType": "struct Payment.Transaction[]",
          "name": "",
          "type": "tuple[]"
        }
      ],
      "stateMutability": "view",
      "type": "function"
    },
    {
      "inputs": [
        {
          "internalType": "address",
          "name": "patient",
          "type": "address"
        }
      ],
      "name": "getPatientPaymentTotal",
      "outputs": [
        {
          "internalType": "uint256",
          "name": "",
          "type": "uint256"
        }
      ],
      "stateMutability": "view",
      "type": "function"
    },
    {
      "inputs": [
        {
          "internalType": "address",
          "name": "patient",
          "type": "address"
        }
      ],
      "name": "getPatientTransactionCount",
      "outputs": [
        {
          "internalType": "uint256",
          "name": "",
          "type": "uint256"
        }
      ],
      "stateMutability": "view",
      "type": "function"
    },
    {
      "inputs": [
        {
          "internalType": "address",
          "name": "patient",
          "type": "address"
        }
      ],
      "name": "getPatientTransactionHistory",
      "outputs": [
        {
          "components": [
            {
              "internalType": "address",
              "name": "from",
              "type": "address"
            },
            {
              "internalType": "address",
              "name": "to",
              "type": "address"
            },
            {
              "internalType": "uint256",
              "name": "amount",
              "type": "uint256"
            },
            {
              "internalType": "uint256",
              "name": "timestamp",
              "type": "uint256"
            },
            {
              "internalType": "string",
              "name": "transactionType",
              "type": "string"
            },
            {
              "internalType": "uint256",
              "name": "claimId",
              "type": "uint256"
            }
          ],
          "internalType": "struct Payment.Transaction[]",
          "name": "",
          "type": "tuple[]"
        }
      ],
      "stateMutability": "view",
      "type": "function"
    },
    {
      "inputs": [
        {
          "internalType": "address",
          "name": "wallet",
          "type": "address"
        }
      ],
      "name": "getWalletBalance",
      "outputs": [
        {
          "internalType": "uint256",
          "name": "",
          "type": "uint256"
        }
      ],
      "stateMutability": "view",
      "type": "function"
    },
    {
      "inputs": [
        {
          "internalType": "uint256",
          "name": "",
          "type": "uint256"
        }
      ],
      "name": "hospitalById",
      "outputs": [
        {
          "internalType": "address",
          "name": "",
          "type": "address"
        }
      ],
      "stateMutability": "view",
      "type": "function"
    },
    {
      "inputs": [
        {
          "internalType": "address",
          "name": "",
          "type": "address"
        },
        {
          "internalType": "uint256",
          "name": "",
          "type": "uint256"
        }
      ],
      "name": "hospitalReceivedHistory",
      "outputs": [
        {
          "internalType": "address",
          "name": "from",
          "type": "address"
        },
        {
          "internalType": "address",
          "name": "to",
          "type": "address"
        },
        {
          "internalType": "uint256",
          "name": "amount",
          "type": "uint256"
        },
        {
          "internalType": "uint256",
          "name": "timestamp",
          "type": "uint256"
        },
        {
          "internalType": "string",
          "name": "transactionType",
          "type": "string"
        },
        {
          "internalType": "uint256",
          "name": "claimId",
          "type": "uint256"
        }
      ],
      "stateMutability": "view",
      "type": "function"
    },
    {
      "inputs": [
        {
          "internalType": "address",
          "name": "",
          "type": "address"
        }
      ],
      "name": "insurancePayments",
      "outputs": [
        {
          "internalType": "uint256",
          "name": "",
          "type": "uint256"
        }
      ],
      "stateMutability": "view",
      "type": "function"
    },
    {
      "inputs": [
        {
          "internalType": "address",
          "name": "",
          "type": "address"
        },
        {
          "internalType": "uint256",
          "name": "",
          "type": "uint256"
        }
      ],
      "name": "insuranceTransactionHistory",
      "outputs": [
        {
          "internalType": "address",
          "name": "from",
          "type": "address"
        },
        {
          "internalType": "address",
          "name": "to",
          "type": "address"
        },
        {
          "internalType": "uint256",
          "name": "amount",
          "type": "uint256"
        },
        {
          "internalType": "uint256",
          "name": "timestamp",
          "type": "uint256"
        },
        {
          "internalType": "string",
          "name": "transactionType",
          "type": "string"
        },
        {
          "internalType": "uint256",
          "name": "claimId",
          "type": "uint256"
        }
      ],
      "stateMutability": "view",
      "type": "function"
    },
    {
      "inputs": [
        {
          "internalType": "address",
          "name": "",
          "type": "address"
        }
      ],
      "name": "patientPayments",
      "outputs": [
        {
          "internalType": "uint256",
          "name": "",
          "type": "uint256"
        }
      ],
      "stateMutability": "view",
      "type": "function"
    },
    {
      "inputs": [
        {
          "internalType": "address",
          "name": "",
          "type": "address"
        },
        {
          "internalType": "uint256",
          "name": "",
          "type": "uint256"
        }
      ],
      "name": "patientTransactionHistory",
      "outputs": [
        {
          "internalType": "address",
          "name": "from",
          "type": "address"
        },
        {
          "internalType": "address",
          "name": "to",
          "type": "address"
        },
        {
          "internalType": "uint256",
          "name": "amount",
          "type": "uint256"
        },
        {
          "internalType": "uint256",
          "name": "timestamp",
          "type": "uint256"
        },
        {
          "internalType": "string",
          "name": "transactionType",
          "type": "string"
        },
        {
          "internalType": "uint256",
          "name": "claimId",
          "type": "uint256"
        }
      ],
      "stateMutability": "view",
      "type": "function"
    },
    {
      "inputs": [
        {
          "internalType": "uint256",
          "name": "hospitalId",
          "type": "uint256"
        },
        {
          "internalType": "address",
          "name": "hospital",
          "type": "address"
        }
      ],
      "name": "registerHospital",
      "outputs": [],
      "stateMutability": "nonpayable",
      "type": "function"
    },
    {
      "inputs": [
        {
          "internalType": "address",
          "name": "from",
          "type": "address"
        },
        {
          "internalType": "address",
          "name": "to",
          "type": "address"
        },
        {
          "internalType": "uint256",
          "name": "amount",
          "type": "uint256"
        },
        {
          "internalType": "uint256",
          "name": "claimId",
          "type": "uint256"
        }
      ],
      "name": "transferFromInsurance",
      "outputs": [],
      "stateMutability": "payable",
      "type": "function"
    },
    {
      "inputs": [
        {
          "internalType": "address",
          "name": "from",
          "type": "address"
        },
        {
          "internalType": "address",
          "name": "to",
          "type": "address"
        },
        {
          "internalType": "uint256",
          "name": "amount",
          "type": "uint256"
        },
        {
          "internalType": "uint256",
          "name": "claimId",
          "type": "uint256"
        }
      ],
      "name": "transferFromPatient",
      "outputs": [],
      "stateMutability": "payable",
      "type": "function"
    },
    {
      "inputs": [
        {
          "internalType": "address",
          "name": "",
          "type": "address"
        }
      ],
      "name": "validHospitals",
      "outputs": [
        {
          "internalType": "bool",
          "name": "",
          "type": "bool"
        }
      ],
      "stateMutability": "view",
      "type": "function"
    }
  ],
  "bytecode": "0x608060405234801561001057600080fd5b5033600460006101000a81548173ffffffffffffffffffffffffffffffffffffffff021916908373ffffffffffffffffffffffffffffffffffffffff160217905550612906806100616000396000f3fe60806040526004361061012a5760003560e01c8063b2ac7552116100ab578063d5f3da4f1161006f578063d5f3da4f1461049c578063e360d85f146104b8578063e683c041146104f5578063e7f8410e14610532578063ed8ec1941461056f578063f851a440146105ac5761012a565b8063b2ac75521461039b578063c45b8464146103dd578063c77f64261461041a578063c8cb829a14610443578063d3928aad146104805761012a565b806378a8f245116100f257806378a8f2451461026a57806385ed30db146102a75780639b791445146102e4578063a27849a514610321578063a4ccb4891461035e5761012a565b8063039003aa1461012f578063162b38ba1461016c578063238b092d146101ae57806359e0072b146101eb57806367a5f1b41461022d575b600080fd5b34801561013b57600080fd5b5061015660048036038101906101519190611eab565b6105d7565b60405161016391906120db565b60405180910390f35b34801561017857600080fd5b50610193600480360381019061018e9190612129565b6107d1565b6040516101a5969594939291906121d1565b60405180910390f35b3480156101ba57600080fd5b506101d560048036038101906101d09190611eab565b6108f2565b6040516101e29190612239565b60405180910390f35b3480156101f757600080fd5b50610212600480360381019061020d9190612129565b61090a565b604051610224969594939291906121d1565b60405180910390f35b34801561023957600080fd5b50610254600480360381019061024f9190612254565b610a2b565b6040516102619190612281565b60405180910390f35b34801561027657600080fd5b50610291600480360381019061028c9190611eab565b610a68565b60405161029e9190612239565b60405180910390f35b3480156102b357600080fd5b506102ce60048036038101906102c99190612254565b610ab4565b6040516102db9190612281565b60405180910390f35b3480156102f057600080fd5b5061030b60048036038101906103069190611eab565b610ae7565b6040516103189190612239565b60405180910390f35b34801561032d57600080fd5b5061034860048036038101906103439190611eab565b610b33565b6040516103559190612239565b60405180910390f35b34801561036a57600080fd5b5061038560048036038101906103809190611eab565b610b7c565b60405161039291906120db565b60405180910390f35b3480156103a757600080fd5b506103c260048036038101906103bd9190612129565b610d76565b6040516103d4969594939291906121d1565b60405180910390f35b3480156103e957600080fd5b5061040460048036038101906103ff9190611eab565b610e97565b60405161041191906120db565b60405180910390f35b34801561042657600080fd5b50610441600480360381019061043c919061229c565b611091565b005b34801561044f57600080fd5b5061046a60048036038101906104659190611eab565b6113a8565b60405161047791906122f7565b60405180910390f35b61049a60048036038101906104959190612312565b6113c8565b005b6104b660048036038101906104b19190612312565b61188f565b005b3480156104c457600080fd5b506104df60048036038101906104da9190611eab565b611d55565b6040516104ec9190612239565b60405180910390f35b34801561050157600080fd5b5061051c60048036038101906105179190611eab565b611d9d565b6040516105299190612239565b60405180910390f35b34801561053e57600080fd5b5061055960048036038101906105549190611eab565b611de9565b6040516105669190612239565b60405180910390f35b34801561057b57600080fd5b5061059660048036038101906105919190611eab565b611e01565b6040516105a39190612239565b60405180910390f35b3480156105b857600080fd5b506105c1611e22565b6040516105ce9190612281565b60405180910390f35b6060600560008373ffffffffffffffffffffffffffffffffffffffff1673ffffffffffffffffffffffffffffffffffffffff168152602001908152602001600020805480602002602001604051908101604052809291908181526020016000905b828210156107c657838290600052602060002090600602016040518060c00160405290816000820160009054906101000a900473ffffffffffffffffffffffffffffffffffffffff1673ffffffffffffffffffffffffffffffffffffffff1673ffffffffffffffffffffffffffffffffffffffff1681526020016001820160009054906101000a900473ffffffffffffffffffffffffffffffffffffffff1673ffffffffffffffffffffffffffffffffffffffff1673ffffffffffffffffffffffffffffffffffffffff168152602001600282015481526020016003820154815260200160048201805461072b906123a8565b80601f0160208091040260200160405190810160405280929190818152602001828054610757906123a8565b80156107a45780601f10610779576101008083540402835291602001916107a4565b820191906000526020600020905b81548152906001019060200180831161078757829003601f168201915b5050505050815260200160058201548152505081526020019060010190610638565b505050509050919050565b600560205281600052604060002081815481106107ed57600080fd5b9060005260206000209060060201600091509150508060000160009054906101000a900473ffffffffffffffffffffffffffffffffffffffff16908060010160009054906101000a900473ffffffffffffffffffffffffffffffffffffffff1690806002015490806003015490806004018054610869906123a8565b80601f0160208091040260200160405190810160405280929190818152602001828054610895906123a8565b80156108e25780601f106108b7576101008083540402835291602001916108e2565b820191906000526020600020905b8154815290600101906020018083116108c557829003601f168201915b5050505050908060050154905086565b60006020528060005260406000206000915090505481565b6007602052816000526040600020818154811061092657600080fd5b9060005260206000209060060201600091509150508060000160009054906101000a900473ffffffffffffffffffffffffffffffffffffffff16908060010160009054906101000a900473ffffffffffffffffffffffffffffffffffffffff16908060020154908060030154908060040180546109a2906123a8565b80601f01602080910402602001604051908101604052809291908181526020018280546109ce906123a8565b8015610a1b5780601f106109f057610100808354040283529160200191610a1b565b820191906000526020600020905b8154815290600101906020018083116109fe57829003601f168201915b5050505050908060050154905086565b60006002600083815260200190815260200160002060009054906101000a900473ffffffffffffffffffffffffffffffffffffffff169050919050565b6000600560008373ffffffffffffffffffffffffffffffffffffffff1673ffffffffffffffffffffffffffffffffffffffff168152602001908152602001600020805490509050919050565b60026020528060005260406000206000915054906101000a900473ffffffffffffffffffffffffffffffffffffffff1681565b6000600760008373ffffffffffffffffffffffffffffffffffffffff1673ffffffffffffffffffffffffffffffffffffffff168152602001908152602001600020805490509050919050565b6000600160008373ffffffffffffffffffffffffffffffffffffffff1673ffffffffffffffffffffffffffffffffffffffff168152602001908152602001600020549050919050565b6060600660008373ffffffffffffffffffffffffffffffffffffffff1673ffffffffffffffffffffffffffffffffffffffff168152602001908152602001600020805480602002602001604051908101604052809291908181526020016000905b82821015610d6b57838290600052602060002090600602016040518060c00160405290816000820160009054906101000a900473ffffffffffffffffffffffffffffffffffffffff1673ffffffffffffffffffffffffffffffffffffffff1673ffffffffffffffffffffffffffffffffffffffff1681526020016001820160009054906101000a900473ffffffffffffffffffffffffffffffffffffffff1673ffffffffffffffffffffffffffffffffffffffff1673ffffffffffffffffffffffffffffffffffffffff1681526020016002820154815260200160038201548152602001600482018054610cd0906123a8565b80601f0160208091040260200160405190810160405280929190818152602001828054610cfc906123a8565b8015610d495780601f10610d1e57610100808354040283529160200191610d49565b820191906000526020600020905b815481529060010190602001808311610d2c57829003601f168201915b5050505050815260200160058201548152505081526020019060010190610bdd565b505050509050919050565b60066020528160005260406000208181548110610d9257600080fd5b9060005260206000209060060201600091509150508060000160009054906101000a900473ffffffffffffffffffffffffffffffffffffffff16908060010160009054906101000a900473ffffffffffffffffffffffffffffffffffffffff1690806002015490806003015490806004018054610e0e906123a8565b80601f0160208091040260200160405190810160405280929190818152602001828054610e3a906123a8565b8015610e875780601f10610e5c57610100808354040283529160200191610e87565b820191906000526020600020905b815481529060010190602001808311610e6a57829003601f168201915b5050505050908060050154905086565b6060600760008373ffffffffffffffffffffffffffffffffffffffff1673ffffffffffffffffffffffffffffffffffffffff168152602001908152602001600020805480602002602001604051908101604052809291908181526020016000905b8282101561108657838290600052602060002090600602016040518060c00160405290816000820160009054906101000a900473ffffffffffffffffffffffffffffffffffffffff1673ffffffffffffffffffffffffffffffffffffffff1673ffffffffffffffffffffffffffffffffffffffff1681526020016001820160009054906101000a900473ffffffffffffffffffffffffffffffffffffffff1673ffffffffffffffffffffffffffffffffffffffff1673ffffffffffffffffffffffffffffffffffffffff1681526020016002820154815260200160038201548152602001600482018054610feb906123a8565b80601f0160208091040260200160405190810160405280929190818152602001828054611017906123a8565b80156110645780601f1061103957610100808354040283529160200191611064565b820191906000526020600020905b81548152906001019060200180831161104757829003601f168201915b5050505050815260200160058201548152505081526020019060010190610ef8565b505050509050919050565b600460009054906101000a900473ffffffffffffffffffffffffffffffffffffffff1673ffffffffffffffffffffffffffffffffffffffff163373ffffffffffffffffffffffffffffffffffffffff1614611121576040517f08c379a000000000000000000000000000000000000000000000000000000000815260040161111890612425565b60405180910390fd5b600073ffffffffffffffffffffffffffffffffffffffff168173ffffffffffffffffffffffffffffffffffffffff1603611190576040517f08c379a000000000000000000000000000000000000000000000000000000000815260040161118790612491565b60405180910390fd5b60006002600084815260200190815260200160002060009054906101000a900473ffffffffffffffffffffffffffffffffffffffff169050600073ffffffffffffffffffffffffffffffffffffffff168173ffffffffffffffffffffffffffffffffffffffff16146112b4576000600360008373ffffffffffffffffffffffffffffffffffffffff1673ffffffffffffffffffffffffffffffffffffffff16815260200190815260200160002060006101000a81548160ff0219169083151502179055508173ffffffffffffffffffffffffffffffffffffffff168173ffffffffffffffffffffffffffffffffffffffff16847feb13c371e7a7720a3dc549b594b313f51f17e3f3f4a827a52a4a9f5e7e56bc2160405160405180910390a46112f9565b8173ffffffffffffffffffffffffffffffffffffffff16837fa1fd3231f7912e48ffbf52db08250262416750cd0c9618106dd67eee527a1f0260405160405180910390a35b816002600085815260200190815260200160002060006101000a81548173ffffffffffffffffffffffffffffffffffffffff021916908373ffffffffffffffffffffffffffffffffffffffff1602179055506001600360008473ffffffffffffffffffffffffffffffffffffffff1673ffffffffffffffffffffffffffffffffffffffff16815260200190815260200160002060006101000a81548160ff021916908315150217905550505050565b60036020528060005260406000206000915054906101000a900460ff1681565b600360008473ffffffffffffffffffffffffffffffffffffffff1673ffffffffffffffffffffffffffffffffffffffff16815260200190815260200160002060009054906101000a900460ff16611454576040517f08c379a000000000000000000000000000000000000000000000000000000000815260040161144b906124fd565b60405180910390fd5b813414611496576040517f08c379a000000000000000000000000000000000000000000000000000000000815260040161148d90612569565b60405180910390fd5b8273ffffffffffffffffffffffffffffffffffffffff166108fc839081150290604051600060405180830381858888f193505050501580156114dc573d6000803e3d6000fd5b5081600160008673ffffffffffffffffffffffffffffffffffffffff1673ffffffffffffffffffffffffffffffffffffffff168152602001908152602001600020600082825461152c91906125b8565b9250508190555060006040518060c001604052808673ffffffffffffffffffffffffffffffffffffffff1681526020018573ffffffffffffffffffffffffffffffffffffffff1681526020018481526020014281526020016040518060400160405280600981526020017f494e535552414e434500000000000000000000000000000000000000000000008152508152602001838152509050600660008673ffffffffffffffffffffffffffffffffffffffff1673ffffffffffffffffffffffffffffffffffffffff16815260200190815260200160002081908060018154018082558091505060019003906000526020600020906006020160009091909190915060008201518160000160006101000a81548173ffffffffffffffffffffffffffffffffffffffff021916908373ffffffffffffffffffffffffffffffffffffffff16021790555060208201518160010160006101000a81548173ffffffffffffffffffffffffffffffffffffffff021916908373ffffffffffffffffffffffffffffffffffffffff160217905550604082015181600201556060820151816003015560808201518160040190816116e591906127c7565b5060a082015181600501555050600760008573ffffffffffffffffffffffffffffffffffffffff1673ffffffffffffffffffffffffffffffffffffffff16815260200190815260200160002081908060018154018082558091505060019003906000526020600020906006020160009091909190915060008201518160000160006101000a81548173ffffffffffffffffffffffffffffffffffffffff021916908373ffffffffffffffffffffffffffffffffffffffff16021790555060208201518160010160006101000a81548173ffffffffffffffffffffffffffffffffffffffff021916908373ffffffffffffffffffffffffffffffffffffffff1602179055506040820151816002015560608201518160030155608082015181600401908161181291906127c7565b5060a0820151816005015550508373ffffffffffffffffffffffffffffffffffffffff168573ffffffffffffffffffffffffffffffffffffffff167fce34e3597aab65369683a0e1c6094b3796b83eedd45179617039dda1e339261385428660405161188093929190612899565b60405180910390a35050505050565b600360008473ffffffffffffffffffffffffffffffffffffffff1673ffffffffffffffffffffffffffffffffffffffff16815260200190815260200160002060009054906101000a900460ff1661191b576040517f08c379a0000000000000000000000000000000000000000000000000000000008152600401611912906124fd565b60405180910390fd5b81341461195d576040517f08c379a000000000000000000000000000000000000000000000000000000000815260040161195490612569565b60405180910390fd5b8273ffffffffffffffffffffffffffffffffffffffff166108fc839081150290604051600060405180830381858888f193505050501580156119a3573d6000803e3d6000fd5b50816000808673ffffffffffffffffffffffffffffffffffffffff1673ffffffffffffffffffffffffffffffffffffffff16815260200190815260200160002060008282546119f291906125b8565b9250508190555060006040518060c001604052808673ffffffffffffffffffffffffffffffffffffffff1681526020018573ffffffffffffffffffffffffffffffffffffffff1681526020018481526020014281526020016040518060400160405280600781526020017f50415449454e54000000000000000000000000000000000000000000000000008152508152602001838152509050600560008673ffffffffffffffffffffffffffffffffffffffff1673ffffffffffffffffffffffffffffffffffffffff16815260200190815260200160002081908060018154018082558091505060019003906000526020600020906006020160009091909190915060008201518160000160006101000a81548173ffffffffffffffffffffffffffffffffffffffff021916908373ffffffffffffffffffffffffffffffffffffffff16021790555060208201518160010160006101000a81548173ffffffffffffffffffffffffffffffffffffffff021916908373ffffffffffffffffffffffffffffffffffffffff16021790555060408201518160020155606082015181600301556080820151816004019081611bab91906127c7565b5060a082015181600501555050600760008573ffffffffffffffffffffffffffffffffffffffff1673ffffffffffffffffffffffffffffffffffffffff16815260200190815260200160002081908060018154018082558091505060019003906000526020600020906006020160009091909190915060008201518160000160006101000a81548173ffffffffffffffffffffffffffffffffffffffff021916908373ffffffffffffffffffffffffffffffffffffffff16021790555060208201518160010160006101000a81548173ffffffffffffffffffffffffffffffffffffffff021916908373ffffffffffffffffffffffffffffffffffffffff16021790555060408201518160020155606082015181600301556080820151816004019081611cd891906127c7565b5060a0820151816005015550508373ffffffffffffffffffffffffffffffffffffffff168573ffffffffffffffffffffffffffffffffffffffff167ff8977f807328e281e03116c02fc627e386f563bb4fc8ac4e5f970447acec0bed854286604051611d4693929190612899565b60405180910390a35050505050565b60008060008373ffffffffffffffffffffffffffffffffffffffff1673ffffffffffffffffffffffffffffffffffffffff168152602001908152602001600020549050919050565b6000600660008373ffffffffffffffffffffffffffffffffffffffff1673ffffffffffffffffffffffffffffffffffffffff168152602001908152602001600020805490509050919050565b60016020528060005260406000206000915090505481565b60008173ffffffffffffffffffffffffffffffffffffffff16319050919050565b600460009054906101000a900473ffffffffffffffffffffffffffffffffffffffff1681565b600080fd5b600073ffffffffffffffffffffffffffffffffffffffff82169050919050565b6000611e7882611e4d565b9050919050565b611e8881611e6d565b8114611e9357600080fd5b50565b600081359050611ea581611e7f565b92915050565b600060208284031215611ec157611ec0611e48565b5b6000611ecf84828501611e96565b91505092915050565b600081519050919050565b600082825260208201905092915050565b6000819050602082019050919050565b611f0d81611e6d565b82525050565b6000819050919050565b611f2681611f13565b82525050565b600081519050919050565b600082825260208201905092915050565b60005b83811015611f66578082015181840152602081019050611f4b565b60008484015250505050565b6000601f19601f8301169050919050565b6000611f8e82611f2c565b611f988185611f37565b9350611fa8818560208601611f48565b611fb181611f72565b840191505092915050565b600060c083016000830151611fd46000860182611f04565b506020830151611fe76020860182611f04565b506040830151611ffa6040860182611f1d565b50606083015161200d6060860182611f1d565b50608083015184820360808601526120258282611f83565b91505060a083015161203a60a0860182611f1d565b508091505092915050565b60006120518383611fbc565b905092915050565b6000602082019050919050565b600061207182611ed8565b61207b8185611ee3565b93508360208202850161208d85611ef4565b8060005b858110156120c957848403895281516120aa8582612045565b94506120b583612059565b925060208a01995050600181019050612091565b50829750879550505050505092915050565b600060208201905081810360008301526120f58184612066565b905092915050565b61210681611f13565b811461211157600080fd5b50565b600081359050612123816120fd565b92915050565b600080604083850312156121405761213f611e48565b5b600061214e85828601611e96565b925050602061215f85828601612114565b9150509250929050565b61217281611e6d565b82525050565b61218181611f13565b82525050565b600082825260208201905092915050565b60006121a382611f2c565b6121ad8185612187565b93506121bd818560208601611f48565b6121c681611f72565b840191505092915050565b600060c0820190506121e66000830189612169565b6121f36020830188612169565b6122006040830187612178565b61220d6060830186612178565b818103608083015261221f8185612198565b905061222e60a0830184612178565b979650505050505050565b600060208201905061224e6000830184612178565b92915050565b60006020828403121561226a57612269611e48565b5b600061227884828501612114565b91505092915050565b60006020820190506122966000830184612169565b92915050565b600080604083850312156122b3576122b2611e48565b5b60006122c185828601612114565b92505060206122d285828601611e96565b9150509250929050565b60008115159050919050565b6122f1816122dc565b82525050565b600060208201905061230c60008301846122e8565b92915050565b6000806000806080858703121561232c5761232b611e48565b5b600061233a87828801611e96565b945050602061234b87828801611e96565b935050604061235c87828801612114565b925050606061236d87828801612114565b91505092959194509250565b7f4e487b7100000000000000000000000000000000000000000000000000000000600052602260045260246000fd5b600060028204905060018216806123c057607f821691505b6020821081036123d3576123d2612379565b5b50919050565b7f4f6e6c792061646d696e00000000000000000000000000000000000000000000600082015250565b600061240f600a83612187565b915061241a826123d9565b602082019050919050565b6000602082019050818103600083015261243e81612402565b9050919050565b7f496e76616c696420686f73706974616c20616464726573730000000000000000600082015250565b600061247b601883612187565b915061248682612445565b602082019050919050565b600060208201905081810360008301526124aa8161246e565b9050919050565b7f496e76616c696420686f73706974616c00000000000000000000000000000000600082015250565b60006124e7601083612187565b91506124f2826124b1565b602082019050919050565b60006020820190508181036000830152612516816124da565b9050919050565b7f496e636f727265637420616d6f756e7400000000000000000000000000000000600082015250565b6000612553601083612187565b915061255e8261251d565b602082019050919050565b6000602082019050818103600083015261258281612546565b9050919050565b7f4e487b7100000000000000000000000000000000000000000000000000000000600052601160045260246000fd5b60006125c382611f13565b91506125ce83611f13565b92508282019050808211156125e6576125e5612589565b5b92915050565b7f4e487b7100000000000000000000000000000000000000000000000000000000600052604160045260246000fd5b60008190508160005260206000209050919050565b60006020601f8301049050919050565b600082821b905092915050565b60006008830261267d7fffffffffffffffffffffffffffffffffffffffffffffffffffffffffffffffff82612640565b6126878683612640565b95508019841693508086168417925050509392505050565b6000819050919050565b60006126c46126bf6126ba84611f13565b61269f565b611f13565b9050919050565b6000819050919050565b6126de836126a9565b6126f26126ea826126cb565b84845461264d565b825550505050565b600090565b6127076126fa565b6127128184846126d5565b505050565b5b818110156127365761272b6000826126ff565b600181019050612718565b5050565b601f82111561277b5761274c8161261b565b61275584612630565b81016020851015612764578190505b61277861277085612630565b830182612717565b50505b505050565b600082821c905092915050565b600061279e60001984600802612780565b1980831691505092915050565b60006127b7838361278d565b9150826002028217905092915050565b6127d082611f2c565b67ffffffffffffffff8111156127e9576127e86125ec565b5b6127f382546123a8565b6127fe82828561273a565b600060209050601f831160018114612831576000841561281f578287015190505b61282985826127ab565b865550612891565b601f19841661283f8661261b565b60005b8281101561286757848901518255600182019150602085019450602081019050612842565b868310156128845784890151612880601f89168261278d565b8355505b6001600288020188555050505b505050505050565b60006060820190506128ae6000830186612178565b6128bb6020830185612178565b6128c86040830184612178565b94935050505056fea264697066735822122012d9c2e37b1cd38171f005db2c6517c10315f8088f1f9f500b4945e0e6951c4d64736f6c63430008180033",
  "linkReferences": {},
  "deployedLinkReferences": {}
}