{
  "_format": "hh-sol-artifact-1",
  "contractName": "EHRAccessControl",
  "sourceName": "contracts/EHRAccessControl.sol",
  "abi": [
    {
      "inputs": [
        {
          "internalType": "address",
          "name": "backendAddress",
          "type": "address"
        }
      ],
      "stateMutability": "nonpayable",
      "type": "constructor"
    },
    {
      "inputs": [],
      "name": "AccessControlBadConfirmation",
      "type": "error"
    },
    {
      "inputs": [
        {
          "internalType": "address",
          "name": "account",
          "type": "address"
        },
        {
          "internalType": "bytes32",
          "name": "neededRole",
          "type": "bytes32"
        }
      ],
      "name": "AccessControlUnauthorizedAccount",
      "type": "error"
    },
    {
      "anonymous": false,
      "inputs": [
        {
          "indexed": true,
          "internalType": "uint256",
          "name": "patientId",
          "type": "uint256"
        },
        {
          "indexed": true,
          "internalType": "uint256",
          "name": "doctorId",
          "type": "uint256"
        },
        {
          "indexed": false,
          "internalType": "uint256",
          "name": "timestamp",
          "type": "uint256"
        }
      ],
      "name": "AccessDenied",
      "type": "event"
    },
    {
      "anonymous": false,
      "inputs": [
        {
          "indexed": true,
          "internalType": "uint256",
          "name": "patientId",
          "type": "uint256"
        },
        {
          "indexed": true,
          "internalType": "uint256",
          "name": "doctorId",
          "type": "uint256"
        },
        {
          "indexed": false,
          "internalType": "string",
          "name": "ipfsCID",
          "type": "string"
        },
        {
          "indexed": false,
          "internalType": "bytes32",
          "name": "dataHash",
          "type": "bytes32"
        },
        {
          "indexed": false,
          "internalType": "uint256",
          "name": "timestamp",
          "type": "uint256"
        }
      ],
      "name": "AccessGranted",
      "type": "event"
    },
    {
      "anonymous": false,
      "inputs": [
        {
          "indexed": true,
          "internalType": "uint256",
          "name": "patientId",
          "type": "uint256"
        },
        {
          "indexed": true,
          "internalType": "uint256",
          "name": "doctorId",
          "type": "uint256"
        },
        {
          "indexed": false,
          "internalType": "uint256",
          "name": "timestamp",
          "type": "uint256"
        }
      ],
      "name": "AccessRequested",
      "type": "event"
    },
    {
      "anonymous": false,
      "inputs": [
        {
          "indexed": true,
          "internalType": "uint256",
          "name": "patientId",
          "type": "uint256"
        },
        {
          "indexed": true,
          "internalType": "uint256",
          "name": "doctorId",
          "type": "uint256"
        },
        {
          "indexed": false,
          "internalType": "uint256",
          "name": "timestamp",
          "type": "uint256"
        }
      ],
      "name": "AccessRevoked",
      "type": "event"
    },
    {
      "anonymous": false,
      "inputs": [
        {
          "indexed": true,
          "internalType": "bytes32",
          "name": "role",
          "type": "bytes32"
        },
        {
          "indexed": true,
          "internalType": "bytes32",
          "name": "previousAdminRole",
          "type": "bytes32"
        },
        {
          "indexed": true,
          "internalType": "bytes32",
          "name": "newAdminRole",
          "type": "bytes32"
        }
      ],
      "name": "RoleAdminChanged",
      "type": "event"
    },
    {
      "anonymous": false,
      "inputs": [
        {
          "indexed": true,
          "internalType": "bytes32",
          "name": "role",
          "type": "bytes32"
        },
        {
          "indexed": true,
          "internalType": "address",
          "name": "account",
          "type": "address"
        },
        {
          "indexed": true,
          "internalType": "address",
          "name": "sender",
          "type": "address"
        }
      ],
      "name": "RoleGranted",
      "type": "event"
    },
    {
      "anonymous": false,
      "inputs": [
        {
          "indexed": true,
          "internalType": "bytes32",
          "name": "role",
          "type": "bytes32"
        },
        {
          "indexed": true,
          "internalType": "address",
          "name": "account",
          "type": "address"
        },
        {
          "indexed": true,
          "internalType": "address",
          "name": "sender",
          "type": "address"
        }
      ],
      "name": "RoleRevoked",
      "type": "event"
    },
    {
      "inputs": [],
      "name": "BACKEND_ROLE",
      "outputs": [
        {
          "internalType": "bytes32",
          "name": "",
          "type": "bytes32"
        }
      ],
      "stateMutability": "view",
      "type": "function"
    },
    {
      "inputs": [],
      "name": "DEFAULT_ADMIN_ROLE",
      "outputs": [
        {
          "internalType": "bytes32",
          "name": "",
          "type": "bytes32"
        }
      ],
      "stateMutability": "view",
      "type": "function"
    },
    {
      "inputs": [
        {
          "internalType": "uint256",
          "name": "patientId",
          "type": "uint256"
        },
        {
          "internalType": "uint256",
          "name": "doctorId",
          "type": "uint256"
        }
      ],
      "name": "accessGrants",
      "outputs": [
        {
          "internalType": "enum EHRAccessControl.AccessStatus",
          "name": "status",
          "type": "uint8"
        },
        {
          "internalType": "uint256",
          "name": "timestamp",
          "type": "uint256"
        },
        {
          "internalType": "string",
          "name": "ipfsCID",
          "type": "string"
        },
        {
          "internalType": "bytes32",
          "name": "dataHash",
          "type": "bytes32"
        }
      ],
      "stateMutability": "view",
      "type": "function"
    },
    {
      "inputs": [
        {
          "internalType": "uint256",
          "name": "patientId",
          "type": "uint256"
        },
        {
          "internalType": "uint256",
          "name": "doctorId",
          "type": "uint256"
        }
      ],
      "name": "denyAccess",
      "outputs": [],
      "stateMutability": "nonpayable",
      "type": "function"
    },
    {
      "inputs": [],
      "name": "getAccessHistory",
      "outputs": [
        {
          "components": [
            {
              "internalType": "uint256",
              "name": "patientId",
              "type": "uint256"
            },
            {
              "internalType": "uint256",
              "name": "doctorId",
              "type": "uint256"
            },
            {
              "internalType": "enum EHRAccessControl.AccessStatus",
              "name": "status",
              "type": "uint8"
            },
            {
              "internalType": "uint256",
              "name": "timestamp",
              "type": "uint256"
            },
            {
              "internalType": "string",
              "name": "ipfsCID",
              "type": "string"
            },
            {
              "internalType": "bytes32",
              "name": "dataHash",
              "type": "bytes32"
            }
          ],
          "internalType": "struct EHRAccessControl.AccessLog[]",
          "name": "",
          "type": "tuple[]"
        }
      ],
      "stateMutability": "view",
      "type": "function"
    },
    {
      "inputs": [],
      "name": "getAccessHistoryCount",
      "outputs": [
        {
          "internalType": "uint256",
          "name": "",
          "type": "uint256"
        }
      ],
      "stateMutability": "view",
      "type": "function"
    },
    {
      "inputs": [
        {
          "internalType": "uint256",
          "name": "offset",
          "type": "uint256"
        },
        {
          "internalType": "uint256",
          "name": "limit",
          "type": "uint256"
        }
      ],
      "name": "getAccessHistoryPaginated",
      "outputs": [
        {
          "components": [
            {
              "internalType": "uint256",
              "name": "patientId",
              "type": "uint256"
            },
            {
              "internalType": "uint256",
              "name": "doctorId",
              "type": "uint256"
            },
            {
              "internalType": "enum EHRAccessControl.AccessStatus",
              "name": "status",
              "type": "uint8"
            },
            {
              "internalType": "uint256",
              "name": "timestamp",
              "type": "uint256"
            },
            {
              "internalType": "string",
              "name": "ipfsCID",
              "type": "string"
            },
            {
              "internalType": "bytes32",
              "name": "dataHash",
              "type": "bytes32"
            }
          ],
          "internalType": "struct EHRAccessControl.AccessLog[]",
          "name": "",
          "type": "tuple[]"
        }
      ],
      "stateMutability": "view",
      "type": "function"
    },
    {
      "inputs": [
        {
          "internalType": "bytes32",
          "name": "role",
          "type": "bytes32"
        }
      ],
      "name": "getRoleAdmin",
      "outputs": [
        {
          "internalType": "bytes32",
          "name": "",
          "type": "bytes32"
        }
      ],
      "stateMutability": "view",
      "type": "function"
    },
    {
      "inputs": [
        {
          "internalType": "uint256",
          "name": "patientId",
          "type": "uint256"
        },
        {
          "internalType": "uint256",
          "name": "doctorId",
          "type": "uint256"
        },
        {
          "internalType": "string",
          "name": "ipfsCID",
          "type": "string"
        },
        {
          "internalType": "bytes32",
          "name": "dataHash",
          "type": "bytes32"
        }
      ],
      "name": "grantAccess",
      "outputs": [],
      "stateMutability": "nonpayable",
      "type": "function"
    },
    {
      "inputs": [
        {
          "internalType": "bytes32",
          "name": "role",
          "type": "bytes32"
        },
        {
          "internalType": "address",
          "name": "account",
          "type": "address"
        }
      ],
      "name": "grantRole",
      "outputs": [],
      "stateMutability": "nonpayable",
      "type": "function"
    },
    {
      "inputs": [
        {
          "internalType": "bytes32",
          "name": "role",
          "type": "bytes32"
        },
        {
          "internalType": "address",
          "name": "account",
          "type": "address"
        }
      ],
      "name": "hasRole",
      "outputs": [
        {
          "internalType": "bool",
          "name": "",
          "type": "bool"
        }
      ],
      "stateMutability": "view",
      "type": "function"
    },
    {
      "inputs": [
        {
          "internalType": "bytes32",
          "name": "role",
          "type": "bytes32"
        },
        {
          "internalType": "address",
          "name": "callerConfirmation",
          "type": "address"
        }
      ],
      "name": "renounceRole",
      "outputs": [],
      "stateMutability": "nonpayable",
      "type": "function"
    },
    {
      "inputs": [
        {
          "internalType": "uint256",
          "name": "patientId",
          "type": "uint256"
        },
        {
          "internalType": "uint256",
          "name": "doctorId",
          "type": "uint256"
        }
      ],
      "name": "requestAccess",
      "outputs": [],
      "stateMutability": "nonpayable",
      "type": "function"
    },
    {
      "inputs": [
        {
          "internalType": "uint256",
          "name": "patientId",
          "type": "uint256"
        },
        {
          "internalType": "uint256",
          "name": "doctorId",
          "type": "uint256"
        }
      ],
      "name": "revokeAccess",
      "outputs": [],
      "stateMutability": "nonpayable",
      "type": "function"
    },
    {
      "inputs": [
        {
          "internalType": "bytes32",
          "name": "role",
          "type": "bytes32"
        },
        {
          "internalType": "address",
          "name": "account",
          "type": "address"
        }
      ],
      "name": "revokeRole",
      "outputs": [],
      "stateMutability": "nonpayable",
      "type": "function"
    },
    {
      "inputs": [
        {
          "internalType": "bytes4",
          "name": "interfaceId",
          "type": "bytes4"
        }
      ],
      "name": "supportsInterface",
      "outputs": [
        {
          "internalType": "bool",
          "name": "",
          "type": "bool"
        }
      ],
      "stateMutability": "view",
      "type": "function"
    }
  ],
  "bytecode": "0x60806040523480156200001157600080fd5b50604051620028f7380380620028f78339818101604052810190620000379190620002d8565b600073ffffffffffffffffffffffffffffffffffffffff168173ffffffffffffffffffffffffffffffffffffffff1603620000a9576040517f08c379a0000000000000000000000000000000000000000000000000000000008152600401620000a0906200036b565b60405180910390fd5b620000be6000801b33620000f960201b60201c565b50620000f17f25cf2b509f2a7f322675b2a5322b182f44ad2c03ac941a0af17c9b178f5d5d5f82620000f960201b60201c565b50506200038d565b60006200010d8383620001fc60201b60201c565b620001f157600160008085815260200190815260200160002060000160008473ffffffffffffffffffffffffffffffffffffffff1673ffffffffffffffffffffffffffffffffffffffff16815260200190815260200160002060006101000a81548160ff0219169083151502179055506200018d6200026660201b60201c565b73ffffffffffffffffffffffffffffffffffffffff168273ffffffffffffffffffffffffffffffffffffffff16847f2f8788117e7eff1d82e926ec794901d17c78024a50270940304540a733656f0d60405160405180910390a460019050620001f6565b600090505b92915050565b600080600084815260200190815260200160002060000160008373ffffffffffffffffffffffffffffffffffffffff1673ffffffffffffffffffffffffffffffffffffffff16815260200190815260200160002060009054906101000a900460ff16905092915050565b600033905090565b600080fd5b600073ffffffffffffffffffffffffffffffffffffffff82169050919050565b6000620002a08262000273565b9050919050565b620002b28162000293565b8114620002be57600080fd5b50565b600081519050620002d281620002a7565b92915050565b600060208284031215620002f157620002f06200026e565b5b60006200030184828501620002c1565b91505092915050565b600082825260208201905092915050565b7f496e76616c6964206261636b656e642061646472657373000000000000000000600082015250565b6000620003536017836200030a565b915062000360826200031b565b602082019050919050565b60006020820190508181036000830152620003868162000344565b9050919050565b61255a806200039d6000396000f3fe608060405234801561001057600080fd5b50600436106101005760003560e01c806391d1485411610097578063bbc8a3a611610066578063bbc8a3a6146102c4578063d3f40a02146102e0578063d547741f146102fc578063f9dc134d1461031857610100565b806391d148541461022857806392c2becc146102585780639643b1fc14610276578063a217fddf146102a657610100565b8063248a9ca3116100d3578063248a9ca31461018d57806326807aee146101bd5780632f2ff15d146101f057806336568abe1461020c57610100565b806301ffc9a71461010557806307b2b35814610135578063091539d4146101535780631b159ab414610171575b600080fd5b61011f600480360381019061011a91906118e1565b610334565b60405161012c9190611929565b60405180910390f35b61013d6103ae565b60405161014a9190611bc8565b60405180910390f35b61015b61056b565b6040516101689190611bf9565b60405180910390f35b61018b60048036038101906101869190611c40565b6105e1565b005b6101a760048036038101906101a29190611cac565b61083e565b6040516101b49190611ce8565b60405180910390f35b6101d760048036038101906101d29190611c40565b61085d565b6040516101e79493929190611d5c565b60405180910390f35b61020a60048036038101906102059190611e06565b61092f565b005b61022660048036038101906102219190611e06565b610951565b005b610242600480360381019061023d9190611e06565b6109cc565b60405161024f9190611929565b60405180910390f35b610260610a36565b60405161026d9190611ce8565b60405180910390f35b610290600480360381019061028b9190611c40565b610a5a565b60405161029d9190611bc8565b60405180910390f35b6102ae610d29565b6040516102bb9190611ce8565b60405180910390f35b6102de60048036038101906102d99190611eab565b610d30565b005b6102fa60048036038101906102f59190611c40565b610ff9565b005b61031660048036038101906103119190611e06565b6111d6565b005b610332600480360381019061032d9190611c40565b6111f8565b005b60007f7965db0b000000000000000000000000000000000000000000000000000000007bffffffffffffffffffffffffffffffffffffffffffffffffffffffff1916827bffffffffffffffffffffffffffffffffffffffffffffffffffffffff191614806103a757506103a682611499565b5b9050919050565b60606103da7f25cf2b509f2a7f322675b2a5322b182f44ad2c03ac941a0af17c9b178f5d5d5f336109cc565b610419576040517f08c379a000000000000000000000000000000000000000000000000000000000815260040161041090611fa5565b60405180910390fd5b6002805480602002602001604051908101604052809291908181526020016000905b8282101561056257838290600052602060002090600602016040518060c001604052908160008201548152602001600182015481526020016002820160009054906101000a900460ff16600481111561049757610496611989565b5b60048111156104a9576104a8611989565b5b8152602001600382015481526020016004820180546104c790611ff4565b80601f01602080910402602001604051908101604052809291908181526020018280546104f390611ff4565b80156105405780601f1061051557610100808354040283529160200191610540565b820191906000526020600020905b81548152906001019060200180831161052357829003601f168201915b505050505081526020016005820154815250508152602001906001019061043b565b50505050905090565b60006105977f25cf2b509f2a7f322675b2a5322b182f44ad2c03ac941a0af17c9b178f5d5d5f336109cc565b6105d6576040517f08c379a00000000000000000000000000000000000000000000000000000000081526004016105cd90611fa5565b60405180910390fd5b600280549050905090565b61060b7f25cf2b509f2a7f322675b2a5322b182f44ad2c03ac941a0af17c9b178f5d5d5f336109cc565b61064a576040517f08c379a000000000000000000000000000000000000000000000000000000000815260040161064190611fa5565b60405180910390fd5b600060016000848152602001908152602001600020600083815260200190815260200160002060000160009054906101000a900460ff1690506000600481111561069757610696611989565b5b8160048111156106aa576106a9611989565b5b14806106da5750600360048111156106c5576106c4611989565b5b8160048111156106d8576106d7611989565b5b145b610719576040517f08c379a000000000000000000000000000000000000000000000000000000000815260040161071090612071565b60405180910390fd5b60405180608001604052806001600481111561073857610737611989565b5b81526020014281526020016040518060200160405280600081525081526020016000801b81525060016000858152602001908152602001600020600084815260200190815260200160002060008201518160000160006101000a81548160ff021916908360048111156107ae576107ad611989565b5b02179055506020820151816001015560408201518160020190816107d2919061226c565b506060820151816003015590505061080083836001604051806020016040528060008152506000801b611503565b81837f59c06aa46ef456202240f7518ed7b3ebaaacdb5ac946437822fa13e38920c061426040516108319190611bf9565b60405180910390a3505050565b6000806000838152602001908152602001600020600101549050919050565b6001602052816000526040600020602052806000526040600020600091509150508060000160009054906101000a900460ff16908060010154908060020180546108a690611ff4565b80601f01602080910402602001604051908101604052809291908181526020018280546108d290611ff4565b801561091f5780601f106108f45761010080835404028352916020019161091f565b820191906000526020600020905b81548152906001019060200180831161090257829003601f168201915b5050505050908060030154905084565b6109388261083e565b610941816115e4565b61094b83836115f8565b50505050565b6109596116e9565b73ffffffffffffffffffffffffffffffffffffffff168173ffffffffffffffffffffffffffffffffffffffff16146109bd576040517f6697b23200000000000000000000000000000000000000000000000000000000815260040160405180910390fd5b6109c782826116f1565b505050565b600080600084815260200190815260200160002060000160008373ffffffffffffffffffffffffffffffffffffffff1673ffffffffffffffffffffffffffffffffffffffff16815260200190815260200160002060009054906101000a900460ff16905092915050565b7f25cf2b509f2a7f322675b2a5322b182f44ad2c03ac941a0af17c9b178f5d5d5f81565b6060610a867f25cf2b509f2a7f322675b2a5322b182f44ad2c03ac941a0af17c9b178f5d5d5f336109cc565b610ac5576040517f08c379a0000000000000000000000000000000000000000000000000000000008152600401610abc90611fa5565b60405180910390fd5b60006002805490509050808410610b3357600067ffffffffffffffff811115610af157610af0612091565b5b604051908082528060200260200182016040528015610b2a57816020015b610b17611834565b815260200190600190039081610b0f5790505b50915050610d23565b60008385610b41919061236d565b905081811115610b4f578190505b60008582610b5d91906123a1565b905060008167ffffffffffffffff811115610b7b57610b7a612091565b5b604051908082528060200260200182016040528015610bb457816020015b610ba1611834565b815260200190600190039081610b995790505b50905060005b82811015610d1a5760028189610bd0919061236d565b81548110610be157610be06123d5565b5b90600052602060002090600602016040518060c001604052908160008201548152602001600182015481526020016002820160009054906101000a900460ff166004811115610c3357610c32611989565b5b6004811115610c4557610c44611989565b5b815260200160038201548152602001600482018054610c6390611ff4565b80601f0160208091040260200160405190810160405280929190818152602001828054610c8f90611ff4565b8015610cdc5780601f10610cb157610100808354040283529160200191610cdc565b820191906000526020600020905b815481529060010190602001808311610cbf57829003601f168201915b50505050508152602001600582015481525050828281518110610d0257610d016123d5565b5b60200260200101819052508080600101915050610bba565b50809450505050505b92915050565b6000801b81565b610d5a7f25cf2b509f2a7f322675b2a5322b182f44ad2c03ac941a0af17c9b178f5d5d5f336109cc565b610d99576040517f08c379a0000000000000000000000000000000000000000000000000000000008152600401610d9090611fa5565b60405180910390fd5b600060016000878152602001908152602001600020600086815260200190815260200160002060000160009054906101000a900460ff16905060016004811115610de657610de5611989565b5b816004811115610df957610df8611989565b5b1480610e285750600480811115610e1357610e12611989565b5b816004811115610e2657610e25611989565b5b145b610e67576040517f08c379a0000000000000000000000000000000000000000000000000000000008152600401610e5e90612450565b60405180910390fd5b604051806080016040528060026004811115610e8657610e85611989565b5b815260200142815260200185858080601f016020809104026020016040519081016040528093929190818152602001838380828437600081840152601f19601f8201169050808301925050505050505081526020018381525060016000888152602001908152602001600020600087815260200190815260200160002060008201518160000160006101000a81548160ff02191690836004811115610f2e57610f2d611989565b5b0217905550602082015181600101556040820151816002019081610f52919061226c565b5060608201518160030155905050610fb28686600287878080601f016020809104026020016040519081016040528093929190818152602001838380828437600081840152601f19601f8201169050808301925050505050505086611503565b84867f3df065359e974d324ce724b949ecf787663258968be53b59a879231cdaa583f186868642604051610fe994939291906124ac565b60405180910390a3505050505050565b6110237f25cf2b509f2a7f322675b2a5322b182f44ad2c03ac941a0af17c9b178f5d5d5f336109cc565b611062576040517f08c379a000000000000000000000000000000000000000000000000000000000815260040161105990611fa5565b60405180910390fd5b6001600481111561107657611075611989565b5b60016000848152602001908152602001600020600083815260200190815260200160002060000160009054906101000a900460ff1660048111156110bd576110bc611989565b5b146110fd576040517f08c379a00000000000000000000000000000000000000000000000000000000081526004016110f490612450565b60405180910390fd5b600360016000848152602001908152602001600020600083815260200190815260200160002060000160006101000a81548160ff0219169083600481111561114857611147611989565b5b0217905550426001600084815260200190815260200160002060008381526020019081526020016000206001018190555061119982826003604051806020016040528060008152506000801b611503565b80827fab68bac660dc4dc217aaf31b805cc6d0805eb6ead55c290a05a5a0adfe707f8e426040516111ca9190611bf9565b60405180910390a35050565b6111df8261083e565b6111e8816115e4565b6111f283836116f1565b50505050565b6112227f25cf2b509f2a7f322675b2a5322b182f44ad2c03ac941a0af17c9b178f5d5d5f336109cc565b611261576040517f08c379a000000000000000000000000000000000000000000000000000000000815260040161125890611fa5565b60405180910390fd5b6002600481111561127557611274611989565b5b60016000848152602001908152602001600020600083815260200190815260200160002060000160009054906101000a900460ff1660048111156112bc576112bb611989565b5b146112fc576040517f08c379a00000000000000000000000000000000000000000000000000000000081526004016112f390612450565b60405180910390fd5b600460016000848152602001908152602001600020600083815260200190815260200160002060000160006101000a81548160ff0219169083600481111561134757611346611989565b5b0217905550426001600084815260200190815260200160002060008381526020019081526020016000206001018190555061145c8282600460016000878152602001908152602001600020600086815260200190815260200160002060020180546113b190611ff4565b80601f01602080910402602001604051908101604052809291908181526020018280546113dd90611ff4565b801561142a5780601f106113ff5761010080835404028352916020019161142a565b820191906000526020600020905b81548152906001019060200180831161140d57829003601f168201915b505050505060016000888152602001908152602001600020600087815260200190815260200160002060030154611503565b80827f780e35a35bfdc1e102755d77a01e3c49f83d233e1bbfafe8e8117cb802926df44260405161148d9190611bf9565b60405180910390a35050565b60007f01ffc9a7000000000000000000000000000000000000000000000000000000007bffffffffffffffffffffffffffffffffffffffffffffffffffffffff1916827bffffffffffffffffffffffffffffffffffffffffffffffffffffffff1916149050919050565b60026040518060c0016040528087815260200186815260200185600481111561152f5761152e611989565b5b8152602001428152602001848152602001838152509080600181540180825580915050600190039060005260206000209060060201600090919091909150600082015181600001556020820151816001015560408201518160020160006101000a81548160ff021916908360048111156115ac576115ab611989565b5b02179055506060820151816003015560808201518160040190816115d0919061226c565b5060a0820151816005015550505050505050565b6115f5816115f06116e9565b6117e3565b50565b600061160483836109cc565b6116de57600160008085815260200190815260200160002060000160008473ffffffffffffffffffffffffffffffffffffffff1673ffffffffffffffffffffffffffffffffffffffff16815260200190815260200160002060006101000a81548160ff02191690831515021790555061167b6116e9565b73ffffffffffffffffffffffffffffffffffffffff168273ffffffffffffffffffffffffffffffffffffffff16847f2f8788117e7eff1d82e926ec794901d17c78024a50270940304540a733656f0d60405160405180910390a4600190506116e3565b600090505b92915050565b600033905090565b60006116fd83836109cc565b156117d857600080600085815260200190815260200160002060000160008473ffffffffffffffffffffffffffffffffffffffff1673ffffffffffffffffffffffffffffffffffffffff16815260200190815260200160002060006101000a81548160ff0219169083151502179055506117756116e9565b73ffffffffffffffffffffffffffffffffffffffff168273ffffffffffffffffffffffffffffffffffffffff16847ff6391f5c32d9c69d2a47ea670b442974b53935d1edc7fd64eb21e047a839171b60405160405180910390a4600190506117dd565b600090505b92915050565b6117ed82826109cc565b6118305780826040517fe2517d3f0000000000000000000000000000000000000000000000000000000081526004016118279291906124fb565b60405180910390fd5b5050565b6040518060c0016040528060008152602001600081526020016000600481111561186157611860611989565b5b81526020016000815260200160608152602001600080191681525090565b600080fd5b600080fd5b60007fffffffff0000000000000000000000000000000000000000000000000000000082169050919050565b6118be81611889565b81146118c957600080fd5b50565b6000813590506118db816118b5565b92915050565b6000602082840312156118f7576118f661187f565b5b6000611905848285016118cc565b91505092915050565b60008115159050919050565b6119238161190e565b82525050565b600060208201905061193e600083018461191a565b92915050565b600081519050919050565b600082825260208201905092915050565b6000819050602082019050919050565b6000819050919050565b61198381611970565b82525050565b7f4e487b7100000000000000000000000000000000000000000000000000000000600052602160045260246000fd5b600581106119c9576119c8611989565b5b50565b60008190506119da826119b8565b919050565b60006119ea826119cc565b9050919050565b6119fa816119df565b82525050565b600081519050919050565b600082825260208201905092915050565b60005b83811015611a3a578082015181840152602081019050611a1f565b60008484015250505050565b6000601f19601f8301169050919050565b6000611a6282611a00565b611a6c8185611a0b565b9350611a7c818560208601611a1c565b611a8581611a46565b840191505092915050565b6000819050919050565b611aa381611a90565b82525050565b600060c083016000830151611ac1600086018261197a565b506020830151611ad4602086018261197a565b506040830151611ae760408601826119f1565b506060830151611afa606086018261197a565b5060808301518482036080860152611b128282611a57565b91505060a0830151611b2760a0860182611a9a565b508091505092915050565b6000611b3e8383611aa9565b905092915050565b6000602082019050919050565b6000611b5e82611944565b611b68818561194f565b935083602082028501611b7a85611960565b8060005b85811015611bb65784840389528151611b978582611b32565b9450611ba283611b46565b925060208a01995050600181019050611b7e565b50829750879550505050505092915050565b60006020820190508181036000830152611be28184611b53565b905092915050565b611bf381611970565b82525050565b6000602082019050611c0e6000830184611bea565b92915050565b611c1d81611970565b8114611c2857600080fd5b50565b600081359050611c3a81611c14565b92915050565b60008060408385031215611c5757611c5661187f565b5b6000611c6585828601611c2b565b9250506020611c7685828601611c2b565b9150509250929050565b611c8981611a90565b8114611c9457600080fd5b50565b600081359050611ca681611c80565b92915050565b600060208284031215611cc257611cc161187f565b5b6000611cd084828501611c97565b91505092915050565b611ce281611a90565b82525050565b6000602082019050611cfd6000830184611cd9565b92915050565b611d0c816119df565b82525050565b600082825260208201905092915050565b6000611d2e82611a00565b611d388185611d12565b9350611d48818560208601611a1c565b611d5181611a46565b840191505092915050565b6000608082019050611d716000830187611d03565b611d7e6020830186611bea565b8181036040830152611d908185611d23565b9050611d9f6060830184611cd9565b95945050505050565b600073ffffffffffffffffffffffffffffffffffffffff82169050919050565b6000611dd382611da8565b9050919050565b611de381611dc8565b8114611dee57600080fd5b50565b600081359050611e0081611dda565b92915050565b60008060408385031215611e1d57611e1c61187f565b5b6000611e2b85828601611c97565b9250506020611e3c85828601611df1565b9150509250929050565b600080fd5b600080fd5b600080fd5b60008083601f840112611e6b57611e6a611e46565b5b8235905067ffffffffffffffff811115611e8857611e87611e4b565b5b602083019150836001820283011115611ea457611ea3611e50565b5b9250929050565b600080600080600060808688031215611ec757611ec661187f565b5b6000611ed588828901611c2b565b9550506020611ee688828901611c2b565b945050604086013567ffffffffffffffff811115611f0757611f06611884565b5b611f1388828901611e55565b93509350506060611f2688828901611c97565b9150509295509295909350565b7f556e617574686f72697a65643a204241434b454e445f524f4c4520726571756960008201527f7265640000000000000000000000000000000000000000000000000000000000602082015250565b6000611f8f602383611d12565b9150611f9a82611f33565b604082019050919050565b60006020820190508181036000830152611fbe81611f82565b9050919050565b7f4e487b7100000000000000000000000000000000000000000000000000000000600052602260045260246000fd5b6000600282049050600182168061200c57607f821691505b60208210810361201f5761201e611fc5565b5b50919050565b7f496e76616c69642073746174757320666f722072657175657374000000000000600082015250565b600061205b601a83611d12565b915061206682612025565b602082019050919050565b6000602082019050818103600083015261208a8161204e565b9050919050565b7f4e487b7100000000000000000000000000000000000000000000000000000000600052604160045260246000fd5b60008190508160005260206000209050919050565b60006020601f8301049050919050565b600082821b905092915050565b6000600883026121227fffffffffffffffffffffffffffffffffffffffffffffffffffffffffffffffff826120e5565b61212c86836120e5565b95508019841693508086168417925050509392505050565b6000819050919050565b600061216961216461215f84611970565b612144565b611970565b9050919050565b6000819050919050565b6121838361214e565b61219761218f82612170565b8484546120f2565b825550505050565b600090565b6121ac61219f565b6121b781848461217a565b505050565b5b818110156121db576121d06000826121a4565b6001810190506121bd565b5050565b601f821115612220576121f1816120c0565b6121fa846120d5565b81016020851015612209578190505b61221d612215856120d5565b8301826121bc565b50505b505050565b600082821c905092915050565b600061224360001984600802612225565b1980831691505092915050565b600061225c8383612232565b9150826002028217905092915050565b61227582611a00565b67ffffffffffffffff81111561228e5761228d612091565b5b6122988254611ff4565b6122a38282856121df565b600060209050601f8311600181146122d657600084156122c4578287015190505b6122ce8582612250565b865550612336565b601f1984166122e4866120c0565b60005b8281101561230c578489015182556001820191506020850194506020810190506122e7565b868310156123295784890151612325601f891682612232565b8355505b6001600288020188555050505b505050505050565b7f4e487b7100000000000000000000000000000000000000000000000000000000600052601160045260246000fd5b600061237882611970565b915061238383611970565b925082820190508082111561239b5761239a61233e565b5b92915050565b60006123ac82611970565b91506123b783611970565b92508282039050818111156123cf576123ce61233e565b5b92915050565b7f4e487b7100000000000000000000000000000000000000000000000000000000600052603260045260246000fd5b7f496e76616c696420737461747573207472616e736974696f6e00000000000000600082015250565b600061243a601983611d12565b915061244582612404565b602082019050919050565b600060208201905081810360008301526124698161242d565b9050919050565b82818337600083830152505050565b600061248b8385611d12565b9350612498838584612470565b6124a183611a46565b840190509392505050565b600060608201905081810360008301526124c781868861247f565b90506124d66020830185611cd9565b6124e36040830184611bea565b95945050505050565b6124f581611dc8565b82525050565b600060408201905061251060008301856124ec565b61251d6020830184611cd9565b939250505056fea264697066735822122096c0cbafab1acf9511f657015dc3875666d1309d4f9616bc8c9080396e7cbb0764736f6c63430008180033",
  "linkReferences": {},
  "deployedLinkReferences": {}
}