{
  "_format": "hh-sol-artifact-1",
  "contractName": "EHRProof",
  "sourceName": "contracts/EHRProof.sol",
  "abi": [
    {
      "inputs": [
        {
          "internalType": "address",
          "name": "backendSigner",
          "type": "address"
        }
      ],
      "stateMutability": "nonpayable",
      "type": "constructor"
    },
    {
      "inputs": [],
      "name": "AccessControlBadConfirmation",
      "type": "error"
    },
    {
      "inputs": [
        {
          "internalType": "address",
          "name": "account",
          "type": "address"
        },
        {
          "internalType": "bytes32",
          "name": "neededRole",
          "type": "bytes32"
        }
      ],
      "name": "AccessControlUnauthorizedAccount",
      "type": "error"
    },
    {
      "anonymous": false,
      "inputs": [
        {
          "indexed": true,
          "internalType": "bytes32",
          "name": "proofId",
          "type": "bytes32"
        },
        {
          "indexed": true,
          "internalType": "string",
          "name": "patientId",
          "type": "string"
        },
        {
          "indexed": false,
          "internalType": "string",
          "name": "cid",
          "type": "string"
        },
        {
          "indexed": false,
          "internalType": "bytes32",
          "name": "dataHash",
          "type": "bytes32"
        },
        {
          "indexed": true,
          "internalType": "address",
          "name": "submitter",
          "type": "address"
        },
        {
          "indexed": false,
          "internalType": "uint256",
          "name": "timestamp",
          "type": "uint256"
        }
      ],
      "name": "ProofRecorded",
      "type": "event"
    },
    {
      "anonymous": false,
      "inputs": [
        {
          "indexed": true,
          "internalType": "bytes32",
          "name": "role",
          "type": "bytes32"
        },
        {
          "indexed": true,
          "internalType": "bytes32",
          "name": "previousAdminRole",
          "type": "bytes32"
        },
        {
          "indexed": true,
          "internalType": "bytes32",
          "name": "newAdminRole",
          "type": "bytes32"
        }
      ],
      "name": "RoleAdminChanged",
      "type": "event"
    },
    {
      "anonymous": false,
      "inputs": [
        {
          "indexed": true,
          "internalType": "bytes32",
          "name": "role",
          "type": "bytes32"
        },
        {
          "indexed": true,
          "internalType": "address",
          "name": "account",
          "type": "address"
        },
        {
          "indexed": true,
          "internalType": "address",
          "name": "sender",
          "type": "address"
        }
      ],
      "name": "RoleGranted",
      "type": "event"
    },
    {
      "anonymous": false,
      "inputs": [
        {
          "indexed": true,
          "internalType": "bytes32",
          "name": "role",
          "type": "bytes32"
        },
        {
          "indexed": true,
          "internalType": "address",
          "name": "account",
          "type": "address"
        },
        {
          "indexed": true,
          "internalType": "address",
          "name": "sender",
          "type": "address"
        }
      ],
      "name": "RoleRevoked",
      "type": "event"
    },
    {
      "inputs": [],
      "name": "BACKEND_ROLE",
      "outputs": [
        {
          "internalType": "bytes32",
          "name": "",
          "type": "bytes32"
        }
      ],
      "stateMutability": "view",
      "type": "function"
    },
    {
      "inputs": [],
      "name": "DEFAULT_ADMIN_ROLE",
      "outputs": [
        {
          "internalType": "bytes32",
          "name": "",
          "type": "bytes32"
        }
      ],
      "stateMutability": "view",
      "type": "function"
    },
    {
      "inputs": [
        {
          "internalType": "string",
          "name": "patientId",
          "type": "string"
        },
        {
          "internalType": "string",
          "name": "cid",
          "type": "string"
        },
        {
          "internalType": "bytes32",
          "name": "dataHash",
          "type": "bytes32"
        }
      ],
      "name": "computeProofId",
      "outputs": [
        {
          "internalType": "bytes32",
          "name": "",
          "type": "bytes32"
        }
      ],
      "stateMutability": "pure",
      "type": "function"
    },
    {
      "inputs": [
        {
          "internalType": "string",
          "name": "patientId",
          "type": "string"
        }
      ],
      "name": "getProof",
      "outputs": [
        {
          "internalType": "bool",
          "name": "exists",
          "type": "bool"
        },
        {
          "internalType": "string",
          "name": "cid",
          "type": "string"
        },
        {
          "internalType": "bytes32",
          "name": "dataHash",
          "type": "bytes32"
        },
        {
          "internalType": "uint256",
          "name": "timestamp",
          "type": "uint256"
        },
        {
          "internalType": "address",
          "name": "submitter",
          "type": "address"
        }
      ],
      "stateMutability": "view",
      "type": "function"
    },
    {
      "inputs": [
        {
          "internalType": "bytes32",
          "name": "role",
          "type": "bytes32"
        }
      ],
      "name": "getRoleAdmin",
      "outputs": [
        {
          "internalType": "bytes32",
          "name": "",
          "type": "bytes32"
        }
      ],
      "stateMutability": "view",
      "type": "function"
    },
    {
      "inputs": [
        {
          "internalType": "bytes32",
          "name": "role",
          "type": "bytes32"
        },
        {
          "internalType": "address",
          "name": "account",
          "type": "address"
        }
      ],
      "name": "grantRole",
      "outputs": [],
      "stateMutability": "nonpayable",
      "type": "function"
    },
    {
      "inputs": [
        {
          "internalType": "bytes32",
          "name": "role",
          "type": "bytes32"
        },
        {
          "internalType": "address",
          "name": "account",
          "type": "address"
        }
      ],
      "name": "hasRole",
      "outputs": [
        {
          "internalType": "bool",
          "name": "",
          "type": "bool"
        }
      ],
      "stateMutability": "view",
      "type": "function"
    },
    {
      "inputs": [
        {
          "internalType": "string",
          "name": "",
          "type": "string"
        }
      ],
      "name": "patientProofIds",
      "outputs": [
        {
          "internalType": "bytes32",
          "name": "",
          "type": "bytes32"
        }
      ],
      "stateMutability": "view",
      "type": "function"
    },
    {
      "inputs": [
        {
          "internalType": "bytes32",
          "name": "",
          "type": "bytes32"
        }
      ],
      "name": "proofs",
      "outputs": [
        {
          "internalType": "address",
          "name": "submitter",
          "type": "address"
        },
        {
          "internalType": "string",
          "name": "patientId",
          "type": "string"
        },
        {
          "internalType": "string",
          "name": "cid",
          "type": "string"
        },
        {
          "internalType": "bytes32",
          "name": "dataHash",
          "type": "bytes32"
        },
        {
          "internalType": "uint256",
          "name": "timestamp",
          "type": "uint256"
        }
      ],
      "stateMutability": "view",
      "type": "function"
    },
    {
      "inputs": [
        {
          "internalType": "string",
          "name": "patientId",
          "type": "string"
        },
        {
          "internalType": "string",
          "name": "cid",
          "type": "string"
        },
        {
          "internalType": "bytes32",
          "name": "dataHash",
          "type": "bytes32"
        }
      ],
      "name": "recordPatientProof",
      "outputs": [
        {
          "internalType": "bytes32",
          "name": "proofId",
          "type": "bytes32"
        }
      ],
      "stateMutability": "nonpayable",
      "type": "function"
    },
    {
      "inputs": [
        {
          "internalType": "bytes32",
          "name": "role",
          "type": "bytes32"
        },
        {
          "internalType": "address",
          "name": "callerConfirmation",
          "type": "address"
        }
      ],
      "name": "renounceRole",
      "outputs": [],
      "stateMutability": "nonpayable",
      "type": "function"
    },
    {
      "inputs": [
        {
          "internalType": "bytes32",
          "name": "role",
          "type": "bytes32"
        },
        {
          "internalType": "address",
          "name": "account",
          "type": "address"
        }
      ],
      "name": "revokeRole",
      "outputs": [],
      "stateMutability": "nonpayable",
      "type": "function"
    },
    {
      "inputs": [
        {
          "internalType": "bytes4",
          "name": "interfaceId",
          "type": "bytes4"
        }
      ],
      "name": "supportsInterface",
      "outputs": [
        {
          "internalType": "bool",
          "name": "",
          "type": "bool"
        }
      ],
      "stateMutability": "view",
      "type": "function"
    }
  ],
  "bytecode": "0x60806040523480156200001157600080fd5b5060405162001dcc38038062001dcc83398181016040528101906200003791906200029c565b6200004c6000801b33620000bd60201b60201c565b50600073ffffffffffffffffffffffffffffffffffffffff168173ffffffffffffffffffffffffffffffffffffffff1614620000b657620000b47f25cf2b509f2a7f322675b2a5322b182f44ad2c03ac941a0af17c9b178f5d5d5f82620000bd60201b60201c565b505b50620002ce565b6000620000d18383620001c060201b60201c565b620001b557600160008085815260200190815260200160002060000160008473ffffffffffffffffffffffffffffffffffffffff1673ffffffffffffffffffffffffffffffffffffffff16815260200190815260200160002060006101000a81548160ff021916908315150217905550620001516200022a60201b60201c565b73ffffffffffffffffffffffffffffffffffffffff168273ffffffffffffffffffffffffffffffffffffffff16847f2f8788117e7eff1d82e926ec794901d17c78024a50270940304540a733656f0d60405160405180910390a460019050620001ba565b600090505b92915050565b600080600084815260200190815260200160002060000160008373ffffffffffffffffffffffffffffffffffffffff1673ffffffffffffffffffffffffffffffffffffffff16815260200190815260200160002060009054906101000a900460ff16905092915050565b600033905090565b600080fd5b600073ffffffffffffffffffffffffffffffffffffffff82169050919050565b6000620002648262000237565b9050919050565b620002768162000257565b81146200028257600080fd5b50565b60008151905062000296816200026b565b92915050565b600060208284031215620002b557620002b462000232565b5b6000620002c58482850162000285565b91505092915050565b611aee80620002de6000396000f3fe608060405234801561001057600080fd5b50600436106100cf5760003560e01c8063444d95b01161008c578063a217fddf11610066578063a217fddf1461024e578063d1270d821461026c578063d547741f1461029c578063d57763a1146102b8576100cf565b8063444d95b0146101cc57806391d148541461020057806392c2becc14610230576100cf565b806301ffc9a7146100d45780631a56ba8214610104578063248a9ca3146101345780632f2ff15d1461016457806336568abe146101805780633d3d86a51461019c575b600080fd5b6100ee60048036038101906100e99190610f5a565b6102ec565b6040516100fb9190610fa2565b60405180910390f35b61011e60048036038101906101199190611103565b610366565b60405161012b9190611165565b60405180910390f35b61014e600480360381019061014991906111ac565b610394565b60405161015b9190611165565b60405180910390f35b61017e60048036038101906101799190611237565b6103b3565b005b61019a60048036038101906101959190611237565b6103d5565b005b6101b660048036038101906101b191906112d7565b610450565b6040516101c39190611165565b60405180910390f35b6101e660048036038101906101e191906111ac565b610768565b6040516101f7959493929190611413565b60405180910390f35b61021a60048036038101906102159190611237565b6108ce565b6040516102279190610fa2565b60405180910390f35b610238610938565b6040516102459190611165565b60405180910390f35b61025661095c565b6040516102639190611165565b60405180910390f35b61028660048036038101906102819190611474565b610963565b6040516102939190611165565b60405180910390f35b6102b660048036038101906102b19190611237565b610999565b005b6102d260048036038101906102cd91906114ff565b6109bb565b6040516102e395949392919061154c565b60405180910390f35b60007f7965db0b000000000000000000000000000000000000000000000000000000007bffffffffffffffffffffffffffffffffffffffffffffffffffffffff1916827bffffffffffffffffffffffffffffffffffffffffffffffffffffffff1916148061035f575061035e82610c34565b5b9050919050565b6002818051602081018201805184825260208301602085012081835280955050505050506000915090505481565b6000806000838152602001908152602001600020600101549050919050565b6103bc82610394565b6103c581610c9e565b6103cf8383610cb2565b50505050565b6103dd610da3565b73ffffffffffffffffffffffffffffffffffffffff168173ffffffffffffffffffffffffffffffffffffffff1614610441576040517f6697b23200000000000000000000000000000000000000000000000000000000815260040160405180910390fd5b61044b8282610dab565b505050565b60007f25cf2b509f2a7f322675b2a5322b182f44ad2c03ac941a0af17c9b178f5d5d5f61047c81610c9e565b61050f87878080601f016020809104026020016040519081016040528093929190818152602001838380828437600081840152601f19601f8201169050808301925050505050505086868080601f016020809104026020016040519081016040528093929190818152602001838380828437600081840152601f19601f8201169050808301925050505050505085610963565b9150600060016000848152602001908152602001600020600401541461056a576040517f08c379a0000000000000000000000000000000000000000000000000000000008152600401610561906115f2565b60405180910390fd5b6040518060a001604052803373ffffffffffffffffffffffffffffffffffffffff16815260200188888080601f016020809104026020016040519081016040528093929190818152602001838380828437600081840152601f19601f82011690508083019250505050505050815260200186868080601f016020809104026020016040519081016040528093929190818152602001838380828437600081840152601f19601f820116905080830192505050505050508152602001848152602001428152506001600084815260200190815260200160002060008201518160000160006101000a81548173ffffffffffffffffffffffffffffffffffffffff021916908373ffffffffffffffffffffffffffffffffffffffff160217905550602082015181600101908161069e919061181e565b5060408201518160020190816106b4919061181e565b50606082015181600301556080820151816004015590505081600288886040516106df929190611920565b9081526020016040518091039020819055503373ffffffffffffffffffffffffffffffffffffffff168787604051610718929190611920565b6040518091039020837ff2f76e1baaf0b2ed3f91038a4defed5d5380aac6ede5f1d2f7096eeaee47f455888888426040516107569493929190611966565b60405180910390a45095945050505050565b60016020528060005260406000206000915090508060000160009054906101000a900473ffffffffffffffffffffffffffffffffffffffff16908060010180546107b190611641565b80601f01602080910402602001604051908101604052809291908181526020018280546107dd90611641565b801561082a5780601f106107ff5761010080835404028352916020019161082a565b820191906000526020600020905b81548152906001019060200180831161080d57829003601f168201915b50505050509080600201805461083f90611641565b80601f016020809104026020016040519081016040528092919081815260200182805461086b90611641565b80156108b85780601f1061088d576101008083540402835291602001916108b8565b820191906000526020600020905b81548152906001019060200180831161089b57829003601f168201915b5050505050908060030154908060040154905085565b600080600084815260200190815260200160002060000160008373ffffffffffffffffffffffffffffffffffffffff1673ffffffffffffffffffffffffffffffffffffffff16815260200190815260200160002060009054906101000a900460ff16905092915050565b7f25cf2b509f2a7f322675b2a5322b182f44ad2c03ac941a0af17c9b178f5d5d5f81565b6000801b81565b600083838360405160200161097a93929190611a44565b6040516020818303038152906040528051906020012090509392505050565b6109a282610394565b6109ab81610c9e565b6109b58383610dab565b50505050565b60006060600080600080600288886040516109d7929190611920565b90815260200160405180910390205490506000801b8103610a1e5760008060001b600080604051806020016040528060008152509291909550955095509550955050610c2a565b6000600160008381526020019081526020016000206040518060a00160405290816000820160009054906101000a900473ffffffffffffffffffffffffffffffffffffffff1673ffffffffffffffffffffffffffffffffffffffff1673ffffffffffffffffffffffffffffffffffffffff168152602001600182018054610aa490611641565b80601f0160208091040260200160405190810160405280929190818152602001828054610ad090611641565b8015610b1d5780601f10610af257610100808354040283529160200191610b1d565b820191906000526020600020905b815481529060010190602001808311610b0057829003601f168201915b50505050508152602001600282018054610b3690611641565b80601f0160208091040260200160405190810160405280929190818152602001828054610b6290611641565b8015610baf5780601f10610b8457610100808354040283529160200191610baf565b820191906000526020600020905b815481529060010190602001808311610b9257829003601f168201915b505050505081526020016003820154815260200160048201548152505090506000816080015103610c075760008060001b60008060405180602001604052806000815250929190965096509650965096505050610c2a565b600181604001518260600151836080015184600001519650965096509650965050505b9295509295909350565b60007f01ffc9a7000000000000000000000000000000000000000000000000000000007bffffffffffffffffffffffffffffffffffffffffffffffffffffffff1916827bffffffffffffffffffffffffffffffffffffffffffffffffffffffff1916149050919050565b610caf81610caa610da3565b610e9d565b50565b6000610cbe83836108ce565b610d9857600160008085815260200190815260200160002060000160008473ffffffffffffffffffffffffffffffffffffffff1673ffffffffffffffffffffffffffffffffffffffff16815260200190815260200160002060006101000a81548160ff021916908315150217905550610d35610da3565b73ffffffffffffffffffffffffffffffffffffffff168273ffffffffffffffffffffffffffffffffffffffff16847f2f8788117e7eff1d82e926ec794901d17c78024a50270940304540a733656f0d60405160405180910390a460019050610d9d565b600090505b92915050565b600033905090565b6000610db783836108ce565b15610e9257600080600085815260200190815260200160002060000160008473ffffffffffffffffffffffffffffffffffffffff1673ffffffffffffffffffffffffffffffffffffffff16815260200190815260200160002060006101000a81548160ff021916908315150217905550610e2f610da3565b73ffffffffffffffffffffffffffffffffffffffff168273ffffffffffffffffffffffffffffffffffffffff16847ff6391f5c32d9c69d2a47ea670b442974b53935d1edc7fd64eb21e047a839171b60405160405180910390a460019050610e97565b600090505b92915050565b610ea782826108ce565b610eea5780826040517fe2517d3f000000000000000000000000000000000000000000000000000000008152600401610ee1929190611a8f565b60405180910390fd5b5050565b6000604051905090565b600080fd5b600080fd5b60007fffffffff0000000000000000000000000000000000000000000000000000000082169050919050565b610f3781610f02565b8114610f4257600080fd5b50565b600081359050610f5481610f2e565b92915050565b600060208284031215610f7057610f6f610ef8565b5b6000610f7e84828501610f45565b91505092915050565b60008115159050919050565b610f9c81610f87565b82525050565b6000602082019050610fb76000830184610f93565b92915050565b600080fd5b600080fd5b6000601f19601f8301169050919050565b7f4e487b7100000000000000000000000000000000000000000000000000000000600052604160045260246000fd5b61101082610fc7565b810181811067ffffffffffffffff8211171561102f5761102e610fd8565b5b80604052505050565b6000611042610eee565b905061104e8282611007565b919050565b600067ffffffffffffffff82111561106e5761106d610fd8565b5b61107782610fc7565b9050602081019050919050565b82818337600083830152505050565b60006110a66110a184611053565b611038565b9050828152602081018484840111156110c2576110c1610fc2565b5b6110cd848285611084565b509392505050565b600082601f8301126110ea576110e9610fbd565b5b81356110fa848260208601611093565b91505092915050565b60006020828403121561111957611118610ef8565b5b600082013567ffffffffffffffff81111561113757611136610efd565b5b611143848285016110d5565b91505092915050565b6000819050919050565b61115f8161114c565b82525050565b600060208201905061117a6000830184611156565b92915050565b6111898161114c565b811461119457600080fd5b50565b6000813590506111a681611180565b92915050565b6000602082840312156111c2576111c1610ef8565b5b60006111d084828501611197565b91505092915050565b600073ffffffffffffffffffffffffffffffffffffffff82169050919050565b6000611204826111d9565b9050919050565b611214816111f9565b811461121f57600080fd5b50565b6000813590506112318161120b565b92915050565b6000806040838503121561124e5761124d610ef8565b5b600061125c85828601611197565b925050602061126d85828601611222565b9150509250929050565b600080fd5b600080fd5b60008083601f84011261129757611296610fbd565b5b8235905067ffffffffffffffff8111156112b4576112b3611277565b5b6020830191508360018202830111156112d0576112cf61127c565b5b9250929050565b6000806000806000606086880312156112f3576112f2610ef8565b5b600086013567ffffffffffffffff81111561131157611310610efd565b5b61131d88828901611281565b9550955050602086013567ffffffffffffffff8111156113405761133f610efd565b5b61134c88828901611281565b9350935050604061135f88828901611197565b9150509295509295909350565b611375816111f9565b82525050565b600081519050919050565b600082825260208201905092915050565b60005b838110156113b557808201518184015260208101905061139a565b60008484015250505050565b60006113cc8261137b565b6113d68185611386565b93506113e6818560208601611397565b6113ef81610fc7565b840191505092915050565b6000819050919050565b61140d816113fa565b82525050565b600060a082019050611428600083018861136c565b818103602083015261143a81876113c1565b9050818103604083015261144e81866113c1565b905061145d6060830185611156565b61146a6080830184611404565b9695505050505050565b60008060006060848603121561148d5761148c610ef8565b5b600084013567ffffffffffffffff8111156114ab576114aa610efd565b5b6114b7868287016110d5565b935050602084013567ffffffffffffffff8111156114d8576114d7610efd565b5b6114e4868287016110d5565b92505060406114f586828701611197565b9150509250925092565b6000806020838503121561151657611515610ef8565b5b600083013567ffffffffffffffff81111561153457611533610efd565b5b61154085828601611281565b92509250509250929050565b600060a0820190506115616000830188610f93565b818103602083015261157381876113c1565b90506115826040830186611156565b61158f6060830185611404565b61159c608083018461136c565b9695505050505050565b7f50726f6f66206578697374730000000000000000000000000000000000000000600082015250565b60006115dc600c83611386565b91506115e7826115a6565b602082019050919050565b6000602082019050818103600083015261160b816115cf565b9050919050565b7f4e487b7100000000000000000000000000000000000000000000000000000000600052602260045260246000fd5b6000600282049050600182168061165957607f821691505b60208210810361166c5761166b611612565b5b50919050565b60008190508160005260206000209050919050565b60006020601f8301049050919050565b600082821b905092915050565b6000600883026116d47fffffffffffffffffffffffffffffffffffffffffffffffffffffffffffffffff82611697565b6116de8683611697565b95508019841693508086168417925050509392505050565b6000819050919050565b600061171b611716611711846113fa565b6116f6565b6113fa565b9050919050565b6000819050919050565b61173583611700565b61174961174182611722565b8484546116a4565b825550505050565b600090565b61175e611751565b61176981848461172c565b505050565b5b8181101561178d57611782600082611756565b60018101905061176f565b5050565b601f8211156117d2576117a381611672565b6117ac84611687565b810160208510156117bb578190505b6117cf6117c785611687565b83018261176e565b50505b505050565b600082821c905092915050565b60006117f5600019846008026117d7565b1980831691505092915050565b600061180e83836117e4565b9150826002028217905092915050565b6118278261137b565b67ffffffffffffffff8111156118405761183f610fd8565b5b61184a8254611641565b611855828285611791565b600060209050601f8311600181146118885760008415611876578287015190505b6118808582611802565b8655506118e8565b601f19841661189686611672565b60005b828110156118be57848901518255600182019150602085019450602081019050611899565b868310156118db57848901516118d7601f8916826117e4565b8355505b6001600288020188555050505b505050505050565b600081905092915050565b600061190783856118f0565b9350611914838584611084565b82840190509392505050565b600061192d8284866118fb565b91508190509392505050565b60006119458385611386565b9350611952838584611084565b61195b83610fc7565b840190509392505050565b60006060820190508181036000830152611981818688611939565b90506119906020830185611156565b61199d6040830184611404565b95945050505050565b60006119b18261137b565b6119bb81856118f0565b93506119cb818560208601611397565b80840191505092915050565b7f7c00000000000000000000000000000000000000000000000000000000000000600082015250565b6000611a0d6001836118f0565b9150611a18826119d7565b600182019050919050565b6000819050919050565b611a3e611a398261114c565b611a23565b82525050565b6000611a5082866119a6565b9150611a5b82611a00565b9150611a6782856119a6565b9150611a7282611a00565b9150611a7e8284611a2d565b602082019150819050949350505050565b6000604082019050611aa4600083018561136c565b611ab16020830184611156565b939250505056fea26469706673582212206a50183583750fc1d333e09fbac8a9b22079d845c735d7fc5496a97a7e77d4fb64736f6c63430008180033",
  "linkReferences": {},
  "deployedLinkReferences": {}
}